:1000000012C021C020C01FC01EC01DC01CC01BC00C
:100010001AC019C03BC017C016C015C014C013C009
:1000200012C011C010C011241FBECFE5D4E0DEBF46
:10003000CDBF11E0A0E6B0E001C01D92A336B1072C
:10004000E1F77ED094C0DCCF98E087FF02C0959A9C
:1000500001C09598969A9698915011F0880FF5CF17
:10006000979A979808951092610080EC8DB9089541
:10007000DF93CF930F92CDB7DEB71DB88EB18983D2
:100080008FB189830F90CF91DF9108951F920F92C6
:100090000FB60F9211242F938F939F93EF93FF939B
:1000A000DF93CF930F92CDB7DEB79FB18091610000
:1000B0008823E9F4892F8255823088F0973589F0BA
:1000C00085E58FB91DB88EB189838FB1898385E8A5
:1000D0008A95F1F71092610080EC8DB924C09335B8
:1000E00011F19093600081E0809361001CC0209129
:1000F0006000813071F49093620182E0809361002E
:10010000223589F4E92FF0E0EE59FF4F80818FB955
:100110000AC010926100273531F4E0916201F0E0ED
:10012000EE59FF4F90830F90CF91DF91FF91EF91A8
:100130009F918F912F910F900FBE0F901F90189548
:1001400082E187BB88E288BB80EE81BB12BAE2E61F
:10015000F0E0119281E0E236F807D9F77894109236
:10016000610080EC8DB9809162006EDFFCCFF89465
:02017000FFCFBF
:00000001FF
