:1000000012C019C018C017C016C015C079CC13C0D3
:1000100012C011C010C00FC00EC00DC00CC00BC06C
:100020000AC009C008C011241FBECFE5D4E0DEBF5E
:10003000CDBF04DEB2CFE4CF45542D35372032306A
:100040003131303100008BD1149216931B94181566
:1000500094170100089536D352C2DCD137D389C238
:10006000D9D11AC2D7D117C208D48D51869518F4A8
:100070008F932CD38F918F930ED28F918F9380FD7E
:1000800012D00AD08F9181FF0ED00895ECD380E07A
:100090009181982752F0B7C1E9D3B9F380E8F8CF3E
:1000A000FBDF01C0F3DFE2D3B1F7B5C1DCD35EC340
:1000B000DAD3DAD1E0F30895D9D3805818F4D4D143
:1000C00050F79AC180516AF481953A96682F6695E7
:1000D00019F022926A95E9F7817019F08291807F78
:1000E000808308953CD1032D1A010895BCD3BCD15F
:1000F00018F7DCDFE1DFDACF32D1801B2F01089562
:100100002ED18D1901000895B8D37C91743E61F011
:100110007C3151F0B7D140F0803031F0780B10F0E5
:10012000753110F4B9D1D7C2BED269C418D13D8B94
:100130001B07040014D13D35038C22BD08038D0537
:100140001A0B25038C1A092403462AFC0DFBBADA84
:10015000DC16DB28BB17DB28BB17BA0FF2030D2216
:100160000802020DDD08012A01000895020E0100B7
:100170000895F5D00336053717010895F0D00B37F1
:100180000324052C030D21083103811D0A060546B1
:10019000292A4505050346FD0DFCBBDBDD16DC16F3
:1001A000DC16DC28BC17DC28BC17BB0FEE050803E7
:1001B0002A8B1B0508012A010895028B0C07F40005
:1001C000DDDF8D85813061F08EE040F080E106C09A
:1001D0008D85813029F08FE008F081E160D08FD1EA
:1001E0000895BDD03A8B1A2A3E010895B8D003462F
:1001F0002845173901000895020E070302102A014D
:100200000895ADD00BF6030D2308ED032408022C4E
:100210000C030D1EBD080127010028D370E8708370
:10022000B3D39DD012801A8716050329052817BC61
:1002300046FBDC0DFADCDB16BCDA2828BA170FF512
:10024000031B1BDD08012A0108952801089587D0AA
:100250000BF80389220804021007F0038A2108041E
:10026000021107E70388162DBC87161AFDDC0EFC69
:100270000DBBDBDD16DC28BC17BB0FF60512801B9F
:10028000010097D38F93C6D08F91808338C167D0F8
:1002900041881601089563D0871642010895F1D26E
:1002A000DF019AE0989FF001EA5FF54F85918D9309
:1002B0009A95E1F70895E5D2BAC0E3D2CEC092068E
:1002C0009406A606C406BC06CC06D006D606E606EC
:1002D000EE06F606FA06FE06140404040801B60249
:1002E000BA028609540372091409FE047205DC057A
:1002F000E8059604980422066800680068008C00EF
:100300006800680068009800A000A4005A0060001F
:100310006400AC00F003B000EC00E400B800F200B0
:10032000F800A60074064600000134012C01720199
:10033000C0017C01E201EC01D001C2013E064C0685
:1003400002024E028E029602F40556009E02D0086A
:100350005409C208FF91EF91802F09C0EBD89F91FB
:100360008F914F925F922C01440C551C48D3982FCB
:1003700088232AF49F71829586958370895BEEEBC2
:10038000F2E0E80FF21DE80FF21D0590F491E02D68
:10039000F695E795892F0995E9CF8CE28F8383E065
:1003A000888729862FD093D28EE18BD22A8624C7C4
:1003B0009AE08C91708181937D939A95D1F715C0C5
:1003C00098E08D9181939A95E1F718973897089561
:1003D00099E08D9181939A95E1F71997399708954E
:1003E0009AE08D9181939A95E1F71A973A9708953B
:1003F0003DD2E9F339D078F406D090E8908399E9BA
:10040000918308953ED28F938AE021928A95E9F7ED
:100410008F91ECCF36D290E822C034D040F3839550
:100420008083843E20F320D010F401D09FC167D197
:10043000EADF94EE919399E086E0919399E98A95A9
:10044000E1F7379708951ED090F28A9580838D3119
:1004500070F60AD010F401D089C151D19CE1D3DFEC
:10046000908391E091830895818180350FC08081D0
:10047000813008958081843E09C08081803009F0F8
:100480008D31089580818D3128F0843E10F4889458
:100490000895089408950ADEF0D10DD1DAD1808153
:1004A0009C91891708F484DF50819C919923E1F095
:1004B000591B39F05231C0F4CCD197D15A95E9F794
:1004C000C8D16FD120D108F49ECF81818A3020F02D
:1004D000803910F48AD1A1DFAAD18081843E08F04E
:1004E000A2CF8D3108F4B5CF08953327B2D101D012
:1004F000B0D1BADF482F08F439D134270895BDD1DF
:10050000DAD03A966DDF3A97A4D180818030E1F25B
:1005100099276C916030C1F27727680F791F6F5768
:1005200072090AF3643E7205D8F66D31E0F26BDFB2
:1005300060831A963A96D9DF3A9741E1172F3A9697
:1005400059D13A97772321F0272F2BD12A95E9F714
:10055000772750D14A9591F78181803019F459D18C
:10056000712F71DF753008F002D133230AF4FED009
:10057000A9CF83D1A0D03A9633DF3A976AD18C9134
:10058000803009F450CF99276081603021F27727BD
:1005900050E8650F721D681B790B0AF45ACF643E50
:1005A000720580F76D31D0F32EDF608374969DDF86
:1005B00043E12FEF239507D17723E1F3F2D074972E
:1005C000722F27D1172F749623D14A9591F77497DC
:1005D000712F10D1172F77270DD1BECFC0DE0404A5
:1005E000172D161A01000895BADE0404172F161AE3
:1005F000010008953BD1A1F037DF10F4B7D07FD0D0
:1006000061D034D18058859580588083A8DE05124A
:100610000A060404171B12021706290AF402020133
:1006200008959DDE0A0502020D0710050A0A02243C
:1006300009030E07061007034116420108958FDED5
:1006400004043716060536160100089588DE050AEB
:100650000B02032B8B163E052C05071405040446DC
:1006600005461B45060504173C052009038C3E1B67
:1006700001000895CFDE2AD09CD1803049F0863425
:1006800008F086E48F9380D13ADF8F918A95D1F775
:1006900008950895FF91EF91F2015F904F90319688
:1006A000F695E7950994DFD08F9383E0E232F8075F
:1006B0008F9109F4BACAEF83F8870895E2D0DF0179
:1006C00054978ECEDED0DF011A978ACED6D070CE68
:1006D000D4D01A976DCE93D190E088230AF49FEF7F
:1006E000480E591E0895C2D0E6DFA9F788C1BED0D2
:1006F000E2DF89F384C1BAD0F8CFB8D0FACF02983C
:10070000049A08940895319699E077278191782B7F
:100710009A95E1F73A97713008955F70750F982FA9
:100720008F70907F870F77278A3010F08A5071E0A2
:10073000892B08955F70750F982F8F70907F871B9E
:1007400070E012F4865F71E0892B0895319669E0BC
:100750008081982F8F70907F79E0781B80E9891BCA
:10076000872B81936A95A1F73A970895EFDF71E09F
:100770003A9669E08291D3DF8295D1DF82958083BA
:100780006A95C1F73197089571E03A9669E08291D0
:10079000D3DF8295C4DF829580836A95C1F7319754
:1007A000089577273A961A9669E082915E91B5DFAF
:1007B00082955C915295B1DF829580836A95A9F705
:1007C00031971197089577273A961A9669E08291A2
:1007D0005E91B0DF82955C915295ACDF829580830B
:1007E0006A95A9F73197119708957181703570E076
:1007F00008F079E0319669E08081082E807F872BB0
:1008000082958193702D7F706A95B1F73A9708951C
:1008100077273A9669E082918295082E807F872B10
:100820008083702D7F706A95B1F7319708956BDFE3
:1008300070F01ADE18F49ADF01D098CF80818D31E4
:10084000A8F38181803091F7E3DFFDDDF7CF2082CF
:100850000895EA27AE27EA27FB27BF27FB2708953D
:10086000EF81F8850895FCDF3A970895FCDF8081D9
:1008700080300895F5DF74970895F5DFDF011A974A
:100880000895EEDF3A9617DF3A978F9383E0E23CC4
:10089000F8078F91A8F3C9C9E8E0E89FF001EC5090
:1008A000FF4F0895E9E0E89FF001E857FF4F0895F2
:1008B000EAE0E89FF001E45DFC4F089587E001C0A5
:1008C0008FE106D0F0CE27D0EECE87E001C08FE1D9
:1008D0008E3140F48A31F8F08B50EADFDF01C3DF5C
:1008E000B8DF7ECD8451DEDFDF01BDDF5185B1DFB2
:1008F0006FDD503570F0C6DD60F0399668E071E06C
:1009000039DF81818A3028F0803918F46EDF85DD87
:100910005187089580E58A3030F38A50BDDFDF01CA
:10092000A2DF5085418595DF4BDD503578F0AADD9B
:1009300068F0389667E071E01DDF81818A3030F021
:10094000803920F452DF69DD50874187089587E0C0
:1009500001C08FE18E3138F48A3160F08B50A8DF0E
:10096000DF018FDF3DCD84519DDFDF018ADF2186EE
:100970002FCD80E58A30C0F38A508EDFDF0181DF22
:10098000218620861DCD3BD0882309F43BCD42DD56
:100990008A3010F48183089591E8908380D99295EC
:1009A000792F92838A30B0F392E8908378D9972B8D
:1009B000F6CF7EDB5BDF7FDE7727803810F4872F72
:1009C000089571818138D8F39AE0979F7281707F82
:1009D0007295700D823898F3833840F4979F728136
:1009E0007F70070E121C702D112049F38FEF0895B0
:1009F000E4254E26E425F5255F26F5250895F8DF44
:100A00008591F6DF08957F050000000000000000DA
:100A10007F0750000000000000008201000000007D
:100A2000000000007E0100000000000000007C01CA
:100A300000000000000000007F06931471805599AB
:100A4000453180014426950408889634800230257B
:100A50008509299404577F043429448190325183B5
:100A6000820230258509299404578297719387154E
:100A7000277931658001570796326794896680032C
:100A8000141592653589793280062831853071795F
:100A90005865810572957795130823217E0174535B
:100AA00029251994329681063661977236758134FC
:100AB0007E015707963267948966850214013000DB
:100AC000000000008602531011000000000089049D
:100AD0002949672960000000FF93EF93BF93AF930C
:100AE0009F938F937F936F935F934F9348D649D58E
:100AF000BADEA7E7B0E08181803580E210F036DE13
:100B00008DE28D938081882309F0805849D639F48D
:100B10008B302CF49C85993099F48D3F8CF49BE2BA
:100B2000882312F49DE281959CA3843610F083E61D
:100B300008D6B5D8805D8DA3905D9EA305D6882785
:100B400060E0582F539532F4652F619555276A3030
:100B500008F06AE04BE0451B461B552309F44A9513
:100B60008C85893041F0460F481708F0482F461B06
:100B700012F4640F4427752F740F78DED9F01CD659
:100B8000C9F480818F9380E880837F9380E087DB46
:100B90006ADE7F917195705870837EDC64DE7F9190
:100BA00080818058780F70838F898D3209F4DEDD63
:100BB000C8D59DCFBDD5552321F480E38D938EE21A
:100BC0008D93662321F080E38D936A95E9F777236F
:100BD000B9F0319681918F70805D8D935A9511F4A3
:100BE0008EE28D937A9561F08191982F92959F7006
:100BF000905D9D935A9511F49EE29D937A9559F7D5
:100C00008C85893039F48E91803319F480E28C938D
:100C1000FACF11968A2F87578B879DE0981B51F04A
:100C2000E4E8F0E09E9192938A95E1F780E2829366
:100C3000E737E9F738DD4F915F916F917F918F91A1
:100C40009F91AF91BF91EF91FF9108954F935F9363
:100C50006F937F938F939F93AF93BF93EF93FF9384
:100C600010DED1DB9B85A4E8B0E0A91BB2094D9151
:100C70005EE761E053956A95560F9A9521F18D9143
:100C80008033D1F38E32B1F31197319663958D9104
:100C90008E3221F46A959A95B1F08D9180537081CE
:100CA000707F872B8193560F9A9569F08D918E32C4
:100CB00021F46A959A9539F08D91805382958083BD
:100CC000560F9A9521F7CFDD7AD5A1F09DA19053CB
:100CD0008AE0989F8EA18053800D9CA19D3209F4DB
:100CE0008195580F543E10F0A2DB53EE5D3110F4A5
:100CF000B4DB5DE108DD08F4552750834D3209F47B
:100D000035DDFF91EF91BF91AF919F918F917F91D1
:100D10006F915F914F910895BFBBAEBBE09A8DB3C9
:100D20000895FADF891739F0BFBBAEBB9DBBE29ACD
:100D3000E19AE199FECF089530DB049814D54ED4A2
:100D4000A1C30CDB34FF01009DC308DBDF13FF01EF
:100D500099C303E3FACF089555DBB0CD53DB80E0B0
:100D60008F93D9DD8F9183958035D1F79CCCF6DABE
:100D7000DFC7FFE7010086C30299898B02990895B6
:100D800036C80FE301C000E4D5D3E9DAC7DF13FFAB
:100D9000E70178C3F1D489E002C0D0D488E0EADD6D
:100DA00062DD62DB20F405DE8A950894089501DE99
:100DB000803508F03AC788940895ECDF01C0EDDF74
:100DC00040F48F930ED4C5DDF4DD9F91782FB7C822
:100DD000865F8F9306D4BDDD8F9175CDDBDF01C0BB
:100DE000DCDF28F4982FA8D8CFDD02C0865FC2DDF3
:100DF000F8D366DD47C3D1DF8F93BCDDF2D3A9DD25
:100E00004BDB8F9160CDC9DF8F93B4DDEAD3A1DDD9
:100E100042DB8F9158CDC1DF8F93ACDD21D98F910B
:100E200052CDBBDF8F93A6DD1DD98F914CCDB5DFA1
:100E300003C0B0DF01C0865F8F939CDDD2D389DD14
:100E40008F9141DD3DDD1EC3A8DF8F9393DDC9D3B4
:100E500080DD55DB8F9137CDA0DF8F938BDDC1D344
:100E600078DD87DB8F912FCD80E08D8790C2EDD527
:100E700070F4982FEAD558F47AE0979F800D82336A
:100E800030F40A881B88080E121C0E861F86FAC2D0
:100E9000782F89890299ABD7872FD7D7AE87BF879D
:100EA000F1C2029B08950298EDD26BD8029A43C317
:100EB0007F9354DADFC71A01D9DCFDDB7F910895F7
:100EC00071E001C070E0F4DF19F0772319F4B2C7C4
:100ED0007723E9F7089571E001C070E0E9DF8181CF
:100EE0008078F2CF81E0C1CF8E89882311F40298F7
:100EF000C9C28A958E8B8F93E9E0F4E0E80FF21D6A
:100F0000808175D78F91E9EFF3E0880FE80FF21D2C
:100F10000190F0810E86FF870895782F8F858F933B
:100F20008E858F9388898F93898961D7872F8DD7F5
:100F3000029B2E8A8E898830C8F4839502998E8B05
:100F4000E8E0F4E0E80FF21D9F919083880FE7EF4F
:100F5000F3E0E80FF21D9F9191939F919083AE87EC
:100F6000BF8702990895029AE6D206C85EC6F6D9EE
:100F7000C1DF1AE1C2DF461AE2C029E0C3C71AE3A3
:100F8000C4C7461AE4C5C7C5161AE5C0FFC729E796
:100F9000010078C2E3D9C1DF1BE1C2DF461BE2C01A
:100FA00028E0C3C71BE3C4C7461BE4C5C7DF161B45
:100FB000E5C0FFC728E7010065C2D0D9C10704001A
:100FC000CDD9C3C017FF01005DC2C8D9C2C017C1C7
:100FD0000706C4D9C4C017C3C017461AFF0152C2BE
:100FE00082E043CF888903D74DC2B8D9123CDF03D2
:100FF0002DBF1A0416032D038316DF1BFF1A168458
:1010000016DF1BFF01003EC2A9D91224123CDF03E8
:101010002DBF1A821605042D030617DF1BFF1A05C4
:1010200017DF1BFF01002EC299D98CFF01002AC2D5
:1010300002995DCF029A7FD29FC7ECD901C0E2D955
:101040008ED9C003320A0D020320080529032507A3
:1010500003280326050609013205E001AADC8823DE
:1010600009F40895E7C6C417D416380DCC17580DE7
:101070006E0DDC17E017E4170810820DE817F01763
:10108000D417E212A20E2810481610121812D41209
:101090000018F81788123E10BE0DE00DF60D680E10
:1010A0007E12C40E160E2E0E480EE40EE40F3212FF
:1010B000DA0E420DE00F30108616AA163013520DCC
:1010C000940FBA0FCA0FC817D0175C0DEA0F860D20
:1010D000EC17F417D817DE1262160418FC173A1032
:1010E000BA0DDC0D060EC00E220E320E580ED60EB4
:1010F0006E0FC00FD20FE80EA216CC12560D0416BA
:10110000D20DEE0DF80D380E4A0E180ED00DEC0D66
:10111000080E360E5A0E240E560D900E1A0F9A1601
:10112000780D982F843B68F0845BE6E6F0E1880F49
:10113000E80FF21D8591F491E82FF695E795892F38
:101140000994ADD5EEEFF0E1F2CF853109F495C603
:101150008F3109F49AC6893209F4B0C6853209F490
:10116000A0C68F3209F4B5C6853A11F4079A8AC130
:101170008B3911F4079886C18D3809F478CE08951B
:101180008985EAEEF3E0E80FF21D808108952AD206
:10119000E0DBF6DF8F7121F08A878EE199DBF0DFEB
:1011A0008770813011F478D91CC0823011F473D962
:1011B00018C0833011F4A3D914C0843011F4D9D9E4
:1011C00010C0853011F40ADA0CC0863019F4B3D19E
:1011D00028DA07C0873021F4AED13FD722DA01C028
:1011E00062DA75DB019ACCDF807680834BC189851A
:1011F000873048F483958987ACDBC2DF208208956D
:101200008985882309F411C54EDA8A95898708955E
:10121000E9D10198ECDFBBC0E5D1B9DFB1DF8F9335
:101220008985882309F0ECDF8F9180768030A9F7DB
:10123000AEC0D8D1019B1EC0A3DF8871883141F4B4
:10124000A6DF9EDF8076803411F0803209F4D8DF8B
:1012500097DF8871803131F49ADF92DF80768032B7
:1012600009F4CEDF8DDF8871883009F490DF1BDA56
:1012700070DB019885DF80768960808388C0D9DF44
:1012800080768A60808383C0ADD1019B1AC078DFED
:101290008871883131F47BDF73DF8076803409F424
:1012A000AFDF6EDF8871803109F471DF69DF88712B
:1012B000883021F49CDF64DF80E28083F4D949DB4D
:1012C00001985EDF80768361808361C0DDDF807698
:1012D000856103C0D9DF80768461808358C071E066
:1012E00001C070E07F937ED1019B18C049DF8871F7
:1012F000883109F44CDF44DF8871803121F477DFD5
:101300003FDF80E480833CDF8871883021F46FDF29
:1013100037DF80E28083C7D91CDB019831DF80761C
:101320007F9177237EE109F07FE1872B80832FC0B7
:1013300059D18985882319F423DF877029F06CDF60
:1013400089858823E1F768CF8A85882341F0ABD966
:1013500000DB8EE1FFDA14DF8A85808321CF0895D8
:101360004465670052616400477264004669780012
:1013700045450000326E6400494E56002020202072
:10138000000050676D00202B2D2A3A2F5E560299DF
:10139000089503990895079908958F93EF93FF9304
:1013A000DFD38D85E0E6F3E1813028F0E4E6F3E178
:1013B00011F0E8E6F3E1DBD38C85893021F4ECE72A
:1013C000F3E1D5D306C0ECE6F3E1D1D38C85805DA3
:1013D00098D3EEE7F3E1E4D111F0E0E7F3E1C7D30E
:1013E000EDE7F3E1DAD111F0E4E7F3E1C0D3EDE7A3
:1013F000F3E1CBD111F0E8E7F3E1B9D3C1DE8770B7
:10140000E6E8F3E1E80FF21D8491803221F4E985EA
:10141000EE2309F088E275D3FF91EF918F91089543
:101420008F939F933CD4805D6CD3892F805D69D36B
:101430009F918F91089587D3E2E8F3E198D388894B
:10144000805D5FD39DD39CD3AE85BF858A2FEA890B
:101450008E1BE6DF8AE355D393D3E5D490F012D305
:10146000E0E28A3510F08A55EDE28F938E2F49D352
:101470008F91D6DF85D380E29F3F11F0892F805D69
:1014800040D388C384DF33D0039B08958F939F9309
:10149000AF93BF93EF93FF9363D385E077D3AE858C
:1014A000BF85C1D4D0F0EED28A3540F08A558F93F3
:1014B000E8E7F3E15CD364D38F9105C08F93ECE749
:1014C000F3E155D38F919F9384D451D39F919F3F44
:1014D00021F056D3892F805D14D35CD380E4ABDF39
:1014E000FF91EF91BF91AF919F918F9108950299D4
:1014F0000895039908958F939F93AF93BF93EF93AC
:10150000FF93009902C025DAE7DA079B08C028D3C9
:10151000ECEEF0E098E0819148D39A95E1F71DD385
:10152000E7E7F0E029D3FF91EF91BF91AF919F9151
:101530008F91089556D08F9313D32CD30ED383E479
:10154000E0D228D38F9108950299F5CF0399089599
:1015500022DF9A819F77903408F0C9CFFED285E4CC
:10156000D0D218C3059B02C0069BE5DF059A069BF7
:101570000598069B0895079902C080E05CDFBBDFF9
:10158000FFC4F4D0F6D0FED082E08B87A7E7B0E0AE
:1015900080E28D93A738E9F72C9280E38BA308951E
:1015A0008B858D3010F00894089583958B87E7E73D
:1015B000F0E09CE0818181939A95E1F770838894B3
:1015C00008958B858A958B87E3E8F0E09CE0829113
:1015D00081839A95E1F780E280830895009AD1DFB4
:1015E00051CF019A009B08950098019A2FDB68D98A
:1015F00049CFF7DF029B9FCF0895ABD96DDA009AF0
:1016000025DB5EC9782F705D7F93009BE7DF7F91BC
:10161000CDD059F0D4D029F497D080E28CA380E3C8
:101620008EA38EA18DA37EA32DCF8B85823021F436
:101630008BA1803309F4C5DF8B858C3019F4B3D0CE
:1016400009F40895ADDF1ECF009BD7DFB8D031F489
:101650007BD08BE28CA380E38DA38EA36CD065D06E
:1016600011CF81D0019A009901D00CCF82D08DA1E9
:10167000803341F48EA1803329F480E28CA38DA3C2
:101680008EA380D00895009BA9DF73D08CD021F465
:101690007EE286DF08F04CD0F5CE8F93A2DF8F91EB
:1016A00002C09FDF89E08C87EDCE009902C00AE27C
:1016B0004CCBE4E8F0E09BE279D021F48B85E81B89
:1016C000F20990E280818D3209F09DE29083DACEBA
:1016D0000498D8CE0499FCCF009B19C067D059F06C
:1016E0009DA18EA170E37DA39EA3903319F4803356
:1016F00009F4BCDFC7CE8B85823019F480E38BA35D
:10170000C1CE8BA18E3209F431D05BDFBBCE019A02
:10171000B9CE9F9391E08F938881892B88838F9195
:101720009F9108959F9392E0F6CF9F9394E0F3CF1B
:101730009F9398E0F0CF9F9390E1EDCF9F9390E23D
:10174000EACF9F9390E4E7CF9F9390E8E4CF9F93F5
:101750009EEF8F938881892388838F919F9108952D
:101760009F939DEFF6CF9F939BEFF3CF9F9397EFC0
:10177000F0CF9F939FEEEDCF9F939FEDEACF9F9386
:101780009FEBE7CF9F939FE7E4CF9F9391E08F93E9
:10179000888189238F919F9108959F9392E0F7CF3D
:1017A0009F9394E0F4CF9F9398E0F1CF9F9390E1C3
:1017B000EECF9F9390E2EBCF9F9390E4E8CF9F937F
:1017C00090E8E5CF01E4C1CA02E4BFCA03E4BDCAA0
:1017D00004E4BBCA08E3B9CA0CE3B7CA06E4B5CA55
:1017E00005E4B3CA07E2B1CA06E3AFCA09E3ADCA6A
:1017F00007E3ABCA0BE3A9CA0CE2A7CA0BE2A5CA6E
:101800000DE2A3CA0EE2A1CA8272737462636452CB
:101810005354000102030405060708090B0B0BB41F
:10182000B5B60B0BB7B8C10BB9BABBBCBDBEBFC018
:10183000C40B0A141EC2C30B2832CA0BC5C6C7C8C4
:10184000FF0BA0C9D08C0B0B0BCBCCCDCECFD6963B
:101850000B0B0BD1D2D3D4D5DBD70B0B0BD8D93C88
:10186000AADAE3DC0BDDDEDF82E0E1E20001020365
:101870000405060708090B0B0BE4B5B60B0BE5E6F0
:10188000EB0BB9BABBBCE7E8E9EAC40B46505AEC2B
:10189000C30B646EEF0BEDC6C7FEFF0BFDEED00B66
:1018A0000B0B0BCBF0F1F2F3D6FC0B0B0B0BF4F59F
:1018B000F6F7DBD70B0B0B0BF878AADAFBDC0BDDAA
:1018C000DEDF82E0F9FA53D38FE09D9B8F5F999B17
:1018D0008F5E989B8F5D9A9B8F5C9B9B8F5B809BA1
:1018E0008F5A819B8F59849B8F588F3039F0EE230C
:1018F00021F4E82FEF2B8F7009F0EFEFF3950895A7
:101900008F938FB78F93EF93FF93E0916200E395EE
:10191000E0936200EE27F1E0BF9AD5DFBF98BE9A50
:10192000D2DFBE988B9ACFDF8B988A9ACCDF8A98C9
:10193000A49AC9DFA4980698EE2389F0EF3F79F0C6
:10194000E13509F4069AF0916300FE1711F0E09377
:101950006500E093630088E0809364000AC0809192
:1019600064008A9532F08093640019F48FEF8093BD
:101970006300FF91EF918F918FBF8F911895209207
:101980004F008BE080934E0084E080934B0081EE0B
:1019900080934A0020924D0020924C008091590083
:1019A0008061809359008FEF8D838B838E830895A0
:1019B000F4DE59F0D5DEEBDC8F938F708B5F8A30CD
:1019C00009F488279F91907F892B08959F93EF9327
:1019D000FF939FEF8E819E83891769F5F8948D811F
:1019E0009D837894891739F1823131F4CEDE11F478
:1019F00090DE09C0ACDE07C0813139F4CEDE11F4CF
:101A000091DE01C0ADDEC3DCE4CFD2DFE8E0F8E177
:101A1000E23129F095918917D9F78E2F8950982FA7
:101A20008F7092959F70EAE09E9F800DAEDE19F058
:101A30008EDEADDC865A8F3FFF91EF919F91089526
:101A40008E830895C3DFF1F308958FE07CD08FE398
:101A500058D0F8DF17DD8A300895B8DF89F0E82F15
:101A6000FF27EE5EF74E94919B3051F09A3028F0AC
:101A7000943B18F4EADF88F7980F892F889408952B
:101A800008940895EF93FF939FEF8A3030F0843BE2
:101A900020F405D1EAE0E89F802DE2E1F8E105902D
:101AA000081621F0E63CD9F78EE202C08E2F835152
:101AB000FF91EF910895029B089588DFE9F3813546
:101AC00029F0982F83DF19F0813511F410CA892F7E
:101AD000B7CF9798C098C198C29880FD979A81FD1A
:101AE000C09A82FDC19A83FDC29A969A37D296987F
:101AF00035C295988295EDDF8295EBDF38C2959AD5
:101B0000F9CF8F93FCDF8981839589838F91089525
:101B100083E0DFDF8AE036C2969833D29598F8DF0B
:101B2000F7DFF6DF82E0F5DF88E2E3DF88E0E1DF80
:101B300081E006D086E0DDDF8CE0DBDF298282E019
:101B4000D8DF85E01FC28F939F93982F9F7399834F
:101B50008068CFDF9F918F9108958F9380EC02C0B2
:101B60008F9380E82982C5DF8F910895CADF859120
:101B70008823E1F70895C5DF81918823E1F708956F
:101B80008F9380E2BEDF8F910895FADF99819817D5
:101B9000E0F308958F939F9380E1F8DF9F918F91F9
:101BA00008958F93892F01D08F91829501D08295CE
:101BB0008F938F708A3008F0895F805DA2DF8F91EC
:101BC0000895CEDFE8E3F0E0D2DFE4DFD7D1DFCB6A
:101BD00080E188BB8FE287BB8FE285BB24BA83E1BB
:101BE00082BB80EE81BB089586E456D6A7EFB1E0B4
:101BF00078E092D8819311967A95D9F786E44CD6FD
:101C00008181803108F0FFD3AAD3149316921B94DC
:101C10001815020186E440D6A7EFB1E078E0919173
:101C200080D811967A95D9F70895F894B6D35FD9EC
:101C30008FE594E09EBF8DBF049A1BC02224C0E6AE
:101C4000D0E02FBEE0E6F0E094E02192E036F90724
:101C5000E1F78FE594E09EBF8DBFBADF92D15CDFE4
:101C60008EDE4BD189E08C8767D8ABDF8827BFD069
:101C7000BBDF7894029B06C075DCDCD018F051DA2B
:101C80001ADFF8CFEADE30F0039902C04ADA03C067
:101C900032D101C05ADA049BEDCF56DCEBCF9DEC7C
:101CA000989F982F8AE0082E812D86958695869597
:101CB000809D9019089530003100320033003400C7
:101CC000350036003700380039004F4646000049DD
:101CD0004E56006C6E7800434500434C52000000A5
:101CE0006C6F6700432E740074616E0000783C2DA9
:101CF0003E7400785E3200567800312F7800442E12
:101D00004D5300502D3E520073696E00636F730097
:101D10007069000053544F0052434C0053554D001E
:101D2000795E7800506175736500004578630050F6
:101D30007264007C787C0000454500280029003A48
:101D4000004E6F70000046697800496E740044656B
:101D5000670047544F00000000780044737A005336
:101D6000544F2A0052434C2A0053554D2A005261C9
:101D70006400534252000000002D00783D74004979
:101D80006E632A004578632A005072642A00477205
:101D9000616400525354000000002B00783E3D74F3
:101DA00000496E630050676D0052616E64005661B9
:101DB0007200522F5300002E002B2F2D003D004C9F
:101DC000626C0078210053746174004D65616E008F
:101DD0000000E0EDFDE18A3548F4E6EBFCE1882304
:101DE00029F095919923E9F78A95D9F70895888B79
:101DF000898B92E3899F0A8A1B8A0E861F869A9591
:101E0000090E121C0C8A1D8A0895AE85BF858F931A
:101E10008A89A8178B89B80720F08C898A178D8941
:101E20008B078F9108958827F2DF18F075D71196E8
:101E300088940895AF93BF93E8DFF5DFAE87BF873F
:101E400008F40298BF91AF9108958F939F93982FB4
:101E50009E57AA89BB89E7DF08F4E7CE8917D9F72F
:101E60009F918F910895039B0895CFDFE8F3982FFA
:101E700058D71196AE87BF8705CB0299089503996D
:101E800002C0039A01C00398FDCA02990895D2DFE7
:101E900038F0039905C08F93CDD88F9142D927D8B8
:101EA000F1CA02990895039B0895AFDFE8F39FEF0D
:101EB00038D7982F1196ABDFD8F7E4CA0299089566
:101EC000039B0895A2DF1197A2DFD8F3AE87BF87E7
:101ED000D9CA02990895039B089597DFE8F3FD019D
:101EE000AC89BD899FEF1DD7982FAE17BF0711F0A2
:101EF0001197F9CFC7CAB7DFC5CA82E58DB981E0AE
:101F00008EB908958FB9779BFECF28D08FB10895F1
:101F10002ED08F918F9383E5F5DF83E5F3DF83E5A3
:101F2000F1DF83E5EFDF833529F08F3F11F080305B
:101F300079F708948F91089582E57FEF01C087E5D6
:101F4000E9DF38F0DFDF892FDDDF872FDBDF8894E3
:101F500008952FDC88270894D9F3D1C38F938DE09F
:101F600000C000C000C08A95E9F78F9108958F9353
:101F70008DE9F7CF8AE006C084E604C002D001D024
:101F800000D08AEF8F939F939AE0F1DF9A95E9F75B
:0E1F90008A95D1F79F918F910895F894FFCF15
:00000001FF
