:100000000C9434000C943E000C943E000C943E0082
:100010000C943E000C94C60F0C943E000C943E00D1
:100020000C943E000C943E000C943E000C94A10CE9
:100030000C943E000C943E000C943E000C943E0048
:100040000C943E000C943E000C943E000C943E0038
:100050000C943E000C943E000C943E000C943E0028
:100060000C943E000C943E0011241FBECFEFD4E050
:10007000DEBFCDBF0E945B0E0C942C100C940000D0
:1000800045542D35374220323031313031008CD15A
:10009000149216931B94181594170100089538D3E1
:1000A00053C2DDD139D38AC2DAD11BC2D8D118C22A
:1000B0000AD48D51869518F48F932ED38F918F93F8
:1000C0000FD28F918F9380FD12D00AD08F9181FF34
:1000D0000ED00895EED380E09181982752F0B8C1F8
:1000E000EBD3B9F380E8F8CFFBDF01C0F3DFE4D353
:1000F000B1F7B6C1DED360C3DCD3DBD1E0F3089542
:10010000DBD3805818F4D5D150F79BC180516AF4E5
:1001100081953A96682F669519F022926A95E9F7CB
:10012000817019F08291807F808308953DD1032DE5
:100130001A010895BED3BDD118F7DCDFE1DFDACFB5
:1001400033D1801B2F0108952FD18D1901000895FF
:10015000BAD37C91743E61F07C3151F0B8D140F05B
:10016000803031F0780B10F0753110F4BAD1D9C26B
:10017000BFD26EC419D13D8B1B07040015D13D358C
:10018000038C22BD08038D051A0B25038C1A092444
:1001900003462AFC0DFBBADADC16DB28BB17DB288A
:1001A000BB17BA0FF2030D220802020DDD08012A67
:1001B00001000895020E01000895F6D003360537B8
:1001C00017010895F1D00B370324052C030D2108E6
:1001D0003103811D0A060546292A4505050346FD0A
:1001E0000DFCBBDBDD16DC16DC16DC28BC17DC28BE
:1001F000BC17BB0FEE0508032A8B1B0508012A015B
:100200000895028B0C07F400DDDF8D85813061F0ED
:100210008EE040F080E106C08D85813029F08FE0CE
:1002200008F081E160D090D10895BED03A8B1A2AAF
:100230003E010895B9D003462845173901000895B5
:10024000020E070302102A010895AED00BF6030D2B
:100250002308ED032408022C0C030D1EBD08012702
:1002600001002AD370E87083B6D39ED012801A871B
:1002700016050329052817BC46FBDC0DFADCDB1646
:10028000BCDA2828BA170FF5031B1BDD08012A0169
:1002900008952801089588D00BF8038922080402E4
:1002A0001007F0038A210804021107E70388162DBE
:1002B000BC87161AFDDC0EFC0DBBDBDD16DC28BC92
:1002C00017BB0FF60512801B01009CD38F93C7D07C
:1002D0008F91808339C168D041881601089564D018
:1002E000871642010895F3D2DF019AE0989FF0014A
:1002F000E85AF54F85918D939A95E1F70895E7D2E5
:10030000BBC0E5D2CFC0DC06DE06F006100708074A
:1003100018071C07220732073A07420746074A0711
:100320005E044E045001FE020203D4099C03C0097E
:1003300062094805BC0526063206E004E2046C06A4
:10034000B000B000B000D400B000B000B000E000D9
:10035000E800EC00A200A800AC00F4003A04F800A9
:1003600034012C0100013A014001EE00BE068E006E
:1003700048017C017401BA010802C4012A02340256
:1003800018020A02880696064A029602D602DE0281
:100390003E069E00E6021E09A2091009FF91EF9198
:1003A000802F0AC00E94C40A9F918F914F925F9242
:1003B0002C01440C551C4CD3982F88232AF49F7190
:1003C000829586958370895BE6E0F3E0E80FF21D85
:1003D000E80FF21D0590F491E02DF695E795892F31
:1003E0000995E9CF8CEC8F8383E0888729862FD00D
:1003F00095D28EE18DD22A8629C79AE08C917081A0
:1004000081937D939A95D1F715C098E08D91819352
:100410009A95E1F718973897089599E08D9181930F
:100420009A95E1F71997399708959AE08D918193FC
:100430009A95E1F71A973A9708953ED2E9F339D0A1
:1004400078F406D090E8908399E9918308953FD29B
:100450008F938AE021928A95E9F78F91ECCF37D27A
:1004600090E822C034D040F383958083843E20F30B
:1004700020D010F401D0A0C168D1EADF94EE9193AE
:1004800099E086E0919399E98A95E1F73797089585
:100490001ED090F28A9580838D3170F60AD010F4C8
:1004A00001D08AC152D19CE1D3DF908391E0918346
:1004B0000895818180350FC08081813008958081C9
:1004C000843E09C08081803009F08D31089580819B
:1004D0008D3128F0843E10F488940895089408958E
:1004E00009DEF1D10ED1DBD180819C91891708F40E
:1004F00084DF50819C919923E1F0591B39F05231EE
:10050000C0F4CDD198D15A95E9F7C9D170D121D194
:1005100008F49ECF81818A3020F0803910F48BD18D
:10052000A1DFABD18081843E08F0A2CF8D3108F4E9
:10053000B5CF08953327B3D101D0B1D1BADF482F59
:1005400008F43AD134270895BED1DBD03A966DDF56
:100550003A97A5D180818030E1F299276C91603083
:10056000C1F27727680F791F6F5772090AF3643E4B
:100570007205D8F66D31E0F26BDF60831A963A9619
:10058000D9DF3A9741E1172F3A965AD13A97772314
:1005900021F0272F2CD12A95E9F7772751D14A95B9
:1005A00091F78181803019F45AD1712F71DF753044
:1005B00008F003D133230AF4FFD0A9CF84D1A1D00E
:1005C0003A9633DF3A976BD18C91803009F450CF53
:1005D00099276081603021F2772750E8650F721DFE
:1005E000681B790B0AF45ACF643E720580F76D31AF
:1005F000D0F32EDF608374969DDF43E12FEF2395C8
:1006000008D17723E1F3F3D07497722F28D1172FF5
:10061000749624D14A9591F77497712F11D1172FA1
:1006200077270ED1BECFC0DE0404172D161A0100A5
:100630000895BADE0404172F161A010008953CD15C
:10064000A1F037DF10F4B8D080D062D035D1805817
:10065000859580588083A8DE05120A060404171BBE
:1006600012021706290AF402020108959DDE0A0506
:1006700002020D0710050A0A022409030E070610DC
:1006800007034116420108958FDE0404371606055C
:1006900036160100089588DE050A0B02032B8B161F
:1006A0003E052C0507140504044605461B450605B2
:1006B00004173C052009038C3E1B01000895CFDE82
:1006C0002BD0A0D1803049F0863408F086E48F9397
:1006D00082D13ADF8F918A95D1F708950895FF91DD
:1006E000EF91F2015F904F903196F695E79509945E
:1006F000E0D08F9383E0E23CF8078F9111F40C94E3
:10070000510EEF83F8870895E2D0DF0154978DCE24
:10071000DED0DF011A9789CED6D06FCED4D01A970B
:100720006CCE96D190E088230AF49FEF480E591EB4
:100730000895C2D0E6DFA9F78BC1BED0E2DF89F30E
:1007400087C1BAD0F8CFB8D0FACFF298F49A08940B
:100750000895319699E077278191782B9A95E1F762
:100760003A97713008955F70750F982F8F70907F52
:10077000870F77278A3010F08A5071E0892B08950F
:100780005F70750F982F8F70907F871B70E012F449
:10079000865F71E0892B0895319669E08081982FFA
:1007A0008F70907F79E0781B80E9891B872B81937C
:1007B0006A95A1F73A970895EFDF71E03A9669E0FC
:1007C0008291D3DF8295D1DF829580836A95C1F7CC
:1007D0003197089571E03A9669E08291D3DF82956E
:1007E000C4DF829580836A95C1F731970895772792
:1007F0003A961A9669E082915E91B5DF82955C9196
:100800005295B1DF829580836A95A9F73197119748
:10081000089577273A961A9669E082915E91B0DF43
:1008200082955C915295ACDF829580836A95A9F799
:100830003197119708957181703570E008F079E073
:10084000319669E08081082E807F872B8295819385
:10085000702D7F706A95B1F73A97089577273A9689
:1008600069E082918295082E807F872B8083702D8E
:100870007F706A95B1F7319708956BDF70F019DEDC
:1008800018F49ADF01D098CF80818D31A8F381814F
:10089000803091F7E3DFFCDDF7CF20820895EA276F
:1008A000AE27EA27FB27BF27FB270895EF81F885AE
:1008B0000895FCDF3A970895FCDF80818030089529
:1008C000F5DF74970895F5DFDF011A970895EEDFDD
:1008D0003A9617DF3A978F9384E0E236F8078F91C4
:1008E000A8F30C94510EE8E0E89FF001EC56FE4F9F
:1008F0000895E9E0E89FF001E85DFE4F0895EAE021
:10090000E89FF001E453FC4F089587E001C08FE1B8
:1009100006D0EECE27D0ECCE87E001C08FE18E313D
:1009200040F48A31F8F08B50EADFDF01C2DFB7DF35
:100930007CCD8451DEDFDF01BCDF5185B0DF6DDDB2
:10094000503570F0C4DD60F0399668E071E038DF52
:1009500081818A3028F0803918F46DDF83DD51877A
:10096000089580E58A3030F38A50BDDFDF01A1DFD2
:100970005085418594DF49DD503578F0A8DD68F079
:10098000389667E071E01CDF81818A3030F0803971
:1009900020F451DF67DD50874187089587E001C06B
:1009A0008FE18E3138F48A3160F08B50A8DFDF019F
:1009B0008EDF3BCD84519DDFDF0189DF21862DCD88
:1009C00080E58A30C0F38A508EDFDF0180DF218628
:1009D00020861BCD3DD0882309F439CD40DD8A30F7
:1009E00010F48183089591E890830E94930E92956C
:1009F000792F92838A30A8F392E890830E94930E15
:100A0000972BF5CF79DB58DF7CDE7727803810F421
:100A1000872F089571818138D8F39AE0979F72816A
:100A2000707F7295700D823898F3833840F4979FE9
:100A300072817F70070E121C702D112049F38FEF09
:100A40000895E4254E26E425F5255F26F52508952D
:100A5000F8DF8591F6DF08957F05000000000000B3
:100A600000007F075000000000000000820100002D
:100A70000000000000007E010000000000000000F7
:100A80007C0100000000000000007F0693147180CC
:100A90005599453180014426950408889634800292
:100AA00030258509299404577F04342944819032E4
:100AB00051838202302585092994045782977193C6
:100AC00087152779316580015707963267948966C3
:100AD0008003141592653589793280062831853076
:100AE00071795865810572957795130823217E01E8
:100AF000745329251994329681063661977236759A
:100B000081347E0157079632679489668502140105
:100B100030000000000086025310110000000000A9
:100B200089042949672960000000FF93EF93BF9370
:100B3000AF939F938F937F936F935F934F9343D61E
:100B40004AD5B7DEA7E1B1E08181803580E210F0BF
:100B500033DE8DE28D938081882309F0805844D65E
:100B600039F48B302CF49C859930A1F48D3F94F4AA
:100B70009BE2882312F49DE281959CA3843610F0B9
:100B800083E606D60E94930E805D8DA3905D9EA3A2
:100B900002D6882760E0582F539532F4652F61956F
:100BA00055276A3008F06AE04BE0451B461B552389
:100BB00009F44A958C85893041F0460F481708F0B2
:100BC000482F461B12F4640F4427752F740F74DEF0
:100BD000D9F013D6C9F480818F9380E880837F9306
:100BE00080E081DB66DE7F9171957058708379DCDF
:100BF00060DE7F9180818058780F70838F898D327D
:100C000009F4DADDC5D59CCFBDD5552321F480E3A9
:100C10008D938EE28D93662321F080E38D936A9508
:100C2000E9F77723B9F0319681918F70805D8D93CC
:100C30005A9511F48EE28D937A9561F08191982FF7
:100C400092959F70905D9D935A9511F49EE29D93AD
:100C50007A9559F78C85893039F48E91803319F45F
:100C600080E28C93FACF11968A2F87518B879DE073
:100C7000981B51F0E4E2F1E09E9192938A95E1F79E
:100C800080E28293E731E9F733DD4F915F916F9115
:100C90007F918F919F91AF91BF91EF91FF910895B7
:100CA0004F935F936F937F938F939F93AF93BF9374
:100CB000EF93FF930CDECCDB9B85A4E2B1E0A91B94
:100CC000B2094D915EE761E053956A95560F9A958A
:100CD00021F18D918033D1F38E32B1F3119731969A
:100CE00063958D918E3221F46A959A95B1F08D912C
:100CF00080537081707F872B8193560F9A9569F08E
:100D00008D918E3221F46A959A9539F08D918053A8
:100D100082958083560F9A9521F7CBDD71D5A1F08E
:100D20009DA190538AE0989F8EA18053800D9CA135
:100D30009D3209F48195580F543E10F09DDB53EE1F
:100D40005D3110F4AFDB5DE104DD08F4552750831D
:100D50004D3209F431DDFF91EF91BF91AF919F9139
:100D60008F917F916F915F914F910895B2BDA1BD19
:100D7000F89A80B50895FADF891739F0B2BDA1BDA0
:100D800090BDFA9AF99AF999FECF08952BDBF49861
:100D900011D54ED4A1C306DB34FF01009DC302DB95
:100DA000DF13FF0199C303E3FACF089550DBADCD04
:100DB0004EDB80E08F93D6DD8F9183958035D1F720
:100DC00097CCF0DADFC7FFE7010086C3F299898B81
:100DD000F29908950C943B0F0FE301C000E4D4D3C3
:100DE000E3DAC7DF13FFE70177C389E001C088E0DA
:100DF000E8DD08DE803508F054C70895F6DF03C04B
:100E0000F6DF01C0865F8F9316D4CADD8F9182CD45
:100E1000ECDF03C0ECDF01C0865FD3DD0CD477DDEF
:100E20005BC3E5DF8F93CDDD06D4BADD5ADB8F914E
:100E300071CDDDDF8F93C5DDFED3B2DD51DB8F9148
:100E400069CDD5DF8F93BDDD2FD98F9163CDCFDFF6
:100E50008F93B7DD2BD98F915DCDC9DF03C0C5DF7F
:100E600001C0865F8F93ADDDE6D39ADD8F9152DDB1
:100E70004EDD32C3BCDF8F93A4DDDDD391DD64DBB7
:100E80008F9148CDB4DF8F939CDDD5D389DD96DB80
:100E90008F9140CD80E08D87A4C2FFD570F4982F4C
:100EA000FCD558F47AE0979F800D823330F40A889D
:100EB0001B88080E121C0E861F860EC3782F898988
:100EC000F299D9D7872F0E946A0FAE87BF8704C3D4
:100ED000F29B0895F29800D30E942010F29A55C315
:100EE0007F9360DADFC71A01E7DC0BDC7F9108959E
:100EF00071E001C070E0F4DF19F0772319F4DFC767
:100F00007723E9F7089571E001C070E0E9DF81819E
:100F10008078F2CF81E0BFCF8E89882311F4F298D8
:100F2000DBC28A958E8B8F93E9EAF4E0E80FF21D1D
:100F30008081A1D78F91E9E9F4E0880FE80FF21DD5
:100F40000190F0810E86FF870895782F8F858F930B
:100F50008E858F9388898F9389898DD7872FBAD76C
:100F6000F29B2E8A8E898830D0F48395F2998E8BED
:100F7000E8EAF4E0E80FF21D9F919083880FE7E91B
:100F8000F4E0E80FF21D9F9191939F919083AE87BB
:100F9000BF87F2990895F29AF8D20C941B1081C67B
:100FA00001DAC1DF1AE1C2DF461AE2C029E0C3C795
:100FB0001AE3C4C7461AE4C5C7C5161AE5C0FFC779
:100FC00029E7010089C2EED9C1DF1BE1C2DF461B60
:100FD000E2C028E0C3C71BE3C4C7461BE4C5C7DFA4
:100FE000161BE5C0FFC728E7010076C2DBD9C107A1
:100FF0000400D8D9C3C017FF01006EC2D3D9C2C044
:1010000017C10706CFD9C4C017C3C017461AFF01BE
:1010100063C282E040CF88892ED75EC2C3D9123C1A
:10102000DF032DBF1A0416032D038316DF1BFF1ADF
:10103000168416DF1BFF01004FC2B4D91224123CE4
:10104000DF032DBF1A821605042D030617DF1BFFD1
:101050001A0517DF1BFF01003FC2A4D98CFF010056
:101060003BC2F2995CCFF29A90D2E5C7F8D901C0A1
:10107000EED99AD9C003320A0D02032008052903CC
:10108000250703280326050609013205E001BADC1D
:10109000882309F4089513C7061828178C0D0E1815
:1010A000AC0DC20D1E18221826183A10D80D2A1899
:1010B000321816183613D00E5A109C1664126C1281
:1010C000281342183A18DC127010000E140E220E6B
:1010D000940ED212F40E420E5A0E740E140F161005
:1010E00086120A0F960D12106210DA16FE1684137D
:1010F000A60DC60FEC0FFC0F0A181218B00D1C102D
:10110000DC0D2E1836181A183213B61646183E186B
:101110006C10FC0D100E320EF00E4E0E5E0E840E94
:10112000060FA00FF20F0410180FF6162013AA0DC9
:101130005816060E1A0E240E640E760E440E040E79
:10114000180E340E620E860E500EAA0DBC0E4A0FFB
:10115000EE16CC0D982F843B68F0845BE8E9F0E153
:10116000880FE80FF21D8591F491E82FF695E79529
:10117000892F0994D8D5E0E3F1E1F2CF853109F464
:10118000C2C68F3109F4C7C6893209F4DFC6853279
:1011900009F4CEC68F3209F4E4C6853A11F4F79A01
:1011A0009BC18B3911F4F79897C18D3809F475CE2E
:1011B0008A3009F4F5C6843659F46FD448F497E0C0
:1011C000899F96E49019AFEFB1E0D5DDCDD484C10D
:1011D00008958985EAE8F4E0E80FF21D808108951A
:1011E0002BD2DEDBF6DF8F7121F08A878EE197DB71
:1011F000F0DF8770813011F474D91DC0823011F492
:101200006FD919C0833011F49FD915C0843011F4FF
:10121000D5D911C0853011F406DA0DC0863019F425
:10122000B4D124DA08C0873029F4AFD10E9451002C
:101230001DDA01C05DDA72DBF19ACBDF8076808344
:101240004BC18985873048F483958987A9DBC1DF45
:10125000208208958985882309F423C549DA8A956F
:1012600089870895E9D1F198ECDFBBC0E5D1B8DFFB
:10127000B0DF8F938985882309F0ECDF8F9180762A
:101280008030A9F7AEC0D8D1F19B1EC0A2DF887113
:10129000883141F4A5DF9DDF8076803411F0803203
:1012A00009F4D8DF96DF8871803131F499DF91DF5E
:1012B0008076803209F4CEDF8CDF8871883009F4C3
:1012C0008FDF16DA6DDBF19884DF807689608083AA
:1012D00088C0D9DF80768A60808383C0ADD1F19BDE
:1012E0001AC077DF8871883131F47ADF72DF807657
:1012F000803409F4AFDF6DDF8871803109F470DF6D
:1013000068DF8871883021F49CDF63DF80E28083AE
:10131000EFD946DBF1985DDF80768361808361C021
:10132000DDDF8076856103C0D9DF807684618083CC
:1013300058C071E001C070E07F937ED1F19B18C06E
:1013400048DF8871883109F44BDF43DF88718031D1
:1013500021F477DF3EDF80E480833BDF88718830D3
:1013600021F46FDF36DF80E28083C2D919DBF19888
:1013700030DF80767F9177237EE109F07FE1872B54
:1013800080832FC059D18985882319F422DF877083
:1013900029F06CDF89858823E1F768CF8A85882367
:1013A00041F0A6D9FDDA8EE1FCDA13DF8A8580836D
:1013B00020CF08954465670052616400477264005D
:1013C0004669780045450000326E6400494E56007B
:1013D00020202020000050676D00202B2D2A3A2F5E
:1013E0005E56F2990895F3990895F79908958F93A9
:1013F000EF93FF93E9D38D85E4EBF3E1813028F09F
:10140000E8EBF3E111F0ECEBF3E1E5D38C85893007
:1014100021F4E0EDF3E1DFD306C0E0ECF3E1DBD350
:101420008C85805D96D3E2EDF3E1DED111F0E4EC42
:10143000F3E1D1D3E1EDF3E1D4D111F0E8ECF3E144
:10144000CAD3E1EDF3E1C5D111F0ECECF3E1C3D384
:10145000C0DE8770EAEDF3E1E80FF21D849180327F
:1014600021F4E985EE2309F088E273D3FF91EF912F
:101470008F9108958F939F9356D4805D6AD3892F5F
:10148000805D67D39F918F91089591D3E6EDF3E14D
:10149000A2D38889805D5DD3A7D3A6D3AE85BF854F
:1014A0008A2FEA898E1BE6DF8AE353D39DD3FFD4CC
:1014B00090F010D3E0E28A3510F08A55EDE28F9378
:1014C0008E2F47D38F91D6DF8FD380E29F3F11F0CD
:1014D000892F805D3ED392C384DF33D0F39B089580
:1014E0008F939F93AF93BF93EF93FF936DD385E05B
:1014F00081D3AE85BF85DBD4D0F0ECD28A3540F005
:101500008A558F93ECECF3E166D36ED38F9105C0CF
:101510008F93E0EDF3E15FD38F919F939ED45BD3E4
:101520009F919F3F21F060D3892F805D12D366D3B6
:1015300080E4ABDFFF91EF91BF91AF919F918F91CD
:101540000895F2990895F39908958F939F93AF9317
:10155000BF93EF93FF93F09902C022DAE6DAF79B8C
:1015600008C032D3ECE8F1E098E0819152D39A952B
:10157000E1F727D3E7E1F1E033D3FF91EF91BF919A
:10158000AF919F918F91089556D08F931DD336D3ED
:1015900018D383E4DED232D38F910895F299F5CF38
:1015A000F399089522DF9A819F77903408F0C9CF8C
:1015B00008D385E4CED222C3F59B02C0F69BE5DFBB
:1015C000F59AF69BF598F69B0895F79902C080E08E
:1015D0005CDFBBDF34C5F1D0F3D0F8D082E08B877D
:1015E000A7E1B1E080E28D93A732E9F72C9280E386
:1015F0008BA308958B858D3010F008940895839502
:101600008B87E7E1F1E09CE0818181939A95E1F796
:101610007083889408958B858A958B87E3E2F1E047
:101620009CE0829181839A95E1F780E2808308951E
:10163000F09AD1DF51CFF19AF09B0895F098F19A8A
:101640002FDB65D949CFF7DFF29B9FCF0895A8D94B
:101650006CDAF09A25DB5BC9782F705D7F93F09B85
:10166000E7DF7F91C7D059F0CBD029F494D080E246
:101670008CA380E38EA38EA18DA37EA32DCF8B851B
:10168000823021F48BA1803309F4C5DF8B858C3047
:1016900019F4ADD009F40895ADDF1ECFF09BD7DF6C
:1016A000AFD031F478D08BE28CA380E38DA38EA3EE
:1016B0006CD065D011CF7ED0F19AF09901D00CCFCB
:1016C0007FD08DA1803341F48EA1803329F480E254
:1016D0008CA38DA38EA37AD00895F09BA9DF70D040
:1016E00086D021F47EE286DF08F04CD0F5CE8F93D1
:1016F000A2DF8F9102C09FDF89E08C87EDCEF09949
:1017000002C00AE24CCBE4E2F1E09BE273D021F4A8
:101710008B85E81BF20990E280818D3209F09DE211
:101720009083DACEF498D8CEF499FCCFF09B19C010
:1017300061D059F09DA18EA170E37DA39EA390334B
:1017400019F4803309F4BCDFC7CE8B85823019F4DD
:1017500080E38BA3C1CE8BA18E3209F42ED05BDF48
:10176000BBCEF19AB9CE9F9391E08F938881892B5C
:1017700088838F919F9108959F9392E0F6CF9F93D6
:1017800094E0F3CF9F9398E0F0CF9F9390E1EDCF5B
:101790009F9390E4EACF9F9390E8E7CF9F939EEFCB
:1017A0008F938881892388838F919F9108959F9338
:1017B0009DEFF6CF9F939BEFF3CF9F9397EFF0CFE3
:1017C0009F939FEEEDCF9F939FEBEACF9F939FE771
:1017D000E7CF9F9391E08F93888189238F919F9189
:1017E00008959F9392E0F7CF9F9394E0F4CF9F9357
:1017F00098E0F1CF9F9390E1EECF9F9390E4EBCFF1
:101800009F9390E8E8CF01E4CACA02E4C8CA03E49F
:10181000C6CA04E4C4CA08E3C2CA0CE3C0CA06E4E8
:10182000BECA05E4BCCA07E2BACA06E3B8CA09E3FD
:10183000B6CA07E3B4CA0BE3B2CA0CE2B0CA0BE201
:10184000AECA0DE2ACCA0EE2AACA827273746263B7
:1018500064525354000102030405060708090B0BE8
:101860000BB4B5B60B0BB7B8C10BB9BABBBCBDBE98
:10187000BFC0C40B0A141EC2C30B2832CA0BC5C694
:10188000C7C8FF0BA0C9D08C0B0B0BCBCCCDCECFD8
:10189000D6960B0B0BD1D2D3D4D5DBD70B0B0BD8F1
:1018A000D93CAADAE3DC0BDDDEDF82E0E1E2000115
:1018B00002030405060708090B0B0BE4B5B60B0B76
:1018C000E5E6EB0BB9BABBBCE7E8E9EAC40B465066
:1018D0005AECC30B646EEF0BEDC6C7FEFF0BFDEEBB
:1018E000D00B0B0B0BCBF0F1F2F3D6FC0B0B0B0B6D
:1018F000F4F5F6F7DBD70B0B0B0BF878AADAFBDC69
:101900000BDDDEDF82E0F9FA91D38FE04F9B8F5F32
:10191000359B8F5E189B8F5D349B8F5C199B8F5B13
:10192000329B8F5A1B9B8F59309B8F588F3039F0C9
:10193000EE2321F4E82FEF2B8F7009F0EFEFF395F2
:1019400008958F938FB78F93EF93FF93E0910201E8
:10195000E395E0930201EE27F1E0559AD5DF559823
:10196000229AD2DF2298259ACFDF2598399ACCDFA8
:1019700039983B9AC9DF3B98F698EE2389F0EF3F00
:1019800079F0E13509F4F69AF0910301FE1711F0B0
:10199000E0930501E093030188E0809304010AC00D
:1019A000809104018A9532F08093040119F48FEF3D
:1019B00080930301FF91EF918F918FBF8F911895C5
:1019C000209280008BE08093810082E080938900E8
:1019D00080E7809388002092850020928400809187
:1019E0006F00826080936F008FEF8D838B838E8377
:1019F000089520926F002092800020928100089527
:101A0000F0DE59F0D4DEEDDC8F938F708B5F8A307F
:101A100009F488279F91907F892B08959F93EF93D6
:101A2000FF939FEF8E819E83891769F5F8948D81CE
:101A30009D837894891739F1823131F4CADE11F42B
:101A400092DE09C0ABDE07C0813139F4CADE11F481
:101A500093DE01C0ACDEC5DCE4CFD2DFEAE4F8E11E
:101A6000E43529F095918917D9F78E2F8B54982F4B
:101A70008F7092959F70EAE09E9F800DAADE19F00C
:101A80008DDEAFDC865A8F3FFF91EF919F910895D5
:101A90008E830895C3DFF1F308958FE088D08FE33C
:101AA00058D0F8DF19DD8A300895B8DF89F0E82FC3
:101AB000FF27EC5AF74E94919B3051F09A3028F062
:101AC000943B18F4EADF88F7980F892F88940895DB
:101AD00008940895EF93FF939FEF8A3030F0843B92
:101AE00020F421D1EAE0E89F802DE4E5F8E10590BB
:101AF000081621F0E830D9F78EE202C08E2F855506
:101B0000FF91EF910895F29B089588DFE9F3813505
:101B100029F0982F83DF19F0813511F400CA892F3D
:101B2000B7CF5B985A985998589880FD5B9A81FD79
:101B30005A9A82FD599A83FD589A5C9A6ED25C98A3
:101B40006CC22E988295EDDF8295EBDF6FC22E9AE4
:101B5000F9CF8F93FCDF8981839589838F910895D5
:101B600083E0DFDF8AE06DC292E494BD92E095BD30
:101B7000AFEFB1E00E94B6068F3F09F483E287BD64
:101B80005C985ED22E98ECDFEBDFEADF82E0E9DFE3
:101B900088E2D7DF88E0D5DF81E006D086E0D1DFBC
:101BA0008CE0CFDF298282E0CCDF85E04AC28F93D0
:101BB0009F93982F9F7399838068C3DF9F918F9124
:101BC00008958F9380EC02C08F9380E82982B9DF5B
:101BD0008F910895BEDF85918823E1F70895B9DFDD
:101BE00081918823E1F708958F9380E2B2DF8F918E
:101BF0000895FADF99819817E0F308958F939F93E2
:101C000080E1F8DF9F918F9108958F93892F01D004
:101C10008F91829501D082958F938F708A3008F0D2
:101C2000895F805D96DF8F910895CEDFE0E8F0E078
:101C3000D2DFE4DF02D2D5CB8BE985B980E484B969
:101C4000F8D180EC84B985E388B927B880E88BB9EE
:101C50008FE58AB9089586E40E947304A7EFB1E086
:101C600078E084D8819311967A95D9F786E40E941A
:101C700073048181803110F00E9428020E94D401F7
:101C8000149316921B941815020186E40E947304A3
:101C9000A7EFB1E078E091916ED811967A95D9F7D7
:101CA0000895F8940E94F2013AD98FEF94E09EBF14
:101CB0008DBFF49A20C02224C0E0D1E02FBEE0E026
:101CC000F1E095E02192E030F907E1F78FEF94E041
:101CD0009EBF8DBFB1DF80E891E08093610090935B
:101CE0006100AED141DF6CDE89E08C874FD89DDF8B
:101CF0008827C1D0B0DF789437DFEEDBF29B06C0D7
:101D00005BDCDDD018F026DAFEDEF8CFCEDE30F078
:101D1000F39902C01FDA03C037D101C02FDAF49B58
:101D2000EDCF3CDCEBCF9DEC989F982F8AE0082EFE
:101D3000812D869586958695809D90190895300011
:101D400031003200330034003500360037003800EF
:101D500039004F46460000494E56006C6E780043ED
:101D60004500434C520000006C6F6700432E740026
:101D700074616E0000783C2D3E7400785E3200562F
:101D80007800312F7800442E4D5300502D3E5200E4
:101D900073696E00636F73007069000053544F00E5
:101DA00052434C0053554D00795E78005061757375
:101DB00065000045786300507264007C787C000008
:101DC000454500280029003A004E6F700000466922
:101DD0007800496E74004465670047544F00000066
:101DE00000780044737A0053544F2A0052434C2A1F
:101DF0000053554D2A0052616400534252000000C6
:101E0000002D00783D7400496E632A004578632AEE
:101E1000005072642A0047726164005253540000FB
:101E200000002B00783E3D7400496E630050676DE2
:101E30000052616E640056617200522F5300002EF2
:101E4000002B2F2D003D004C626C00782100537454
:101E50006174004D65616E000000E8E5FEE18A35C1
:101E600048F4EEE3FDE1882329F095919923E9F701
:101E70008A95D9F70895888B898B92E3899F0A8A7E
:101E80001B8A0E861F869A95090E121C0C8A1D8AC3
:101E90000895AE85BF858F938A89A8178B89B80767
:101EA00020F08C898A178D898B078F910895882758
:101EB000F2DF20F00E94B606119688940895AF9341
:101EC000BF93E7DFF4DFAE87BF8708F4F298BF91D6
:101ED000AF9108958F939F93982F9E57AA89BB899E
:101EE000E6DF08F4DECE8917D9F79F918F91089528
:101EF000F39B0895CEDFE8F3982F0E94BB0611965E
:101F0000AE87BF87E9CAF2990895F39902C0F39AA0
:101F100001C0F398E1CAF2990895D1DF40F0F39936
:101F200006C08F93A0D88F9115D90E948F07D4CA6D
:101F3000F2990895F39B0895ACDFE8F39FEF0E94B8
:101F4000BB06982F1196A7DFD0F7C6CAF29908955D
:101F5000F39B08959EDF11979EDFD8F3AE87BF876E
:101F6000BBCAF2990895F39B089593DFE8F3FD014E
:101F7000AC89BD899FEF0E94BB06982FAE17BF07A3
:101F800011F01197F8CFA8CAB3DFA6CA8F9380E0EB
:101F9000809353008093680080936D008F91189513
:101FA000F398F2990E948F078B818F3FE9F70E9487
:101FB000F90C24BC25BC84E08093680080E8809301
:101FC0006D0025B824B828B888E087B980E88BB9B7
:101FD0002AB881E08093530085E080935300789481
:101FE0008895F894209253002092680020926D000A
:101FF0008FEF94E09EBF8DBF0E941C0E21D0B4DDF8
:102000000E94E00C78940E946C0A15D08B818F3F5F
:10201000E9F78E838D830C947B0E8F9385E000C04F
:1020200000C000C08A95E9F78F9108958F938DE4E1
:10203000F7CF8AE006C084E604C002D001D000D009
:102040008AEF8F939F939AE0F1DF9A95E9F78A954B
:0C205000D1F79F918F910895F894FFCF75
:00000001FF
