:1000000019C020C01FC01EC01DC08CCF1BC01AC08D
:1000100019C018C017C06DCC15C014C013C012C0D1
:1000200011C010C00FC00EC00DC00CC00BC00AC064
:1000300009C008C011241FBECFEFD4E0DEBFCDBF82
:100040000BDED0CFDDCF45542D3537422032303155
:10005000313031008BD1149216931B9418159417DC
:100060000100089536D352C2DCD137D389C2D9D129
:100070001AC2D7D117C208D48D51869518F48F9320
:100080002CD38F918F930ED28F918F9380FD12D0AE
:100090000AD08F9181FF0ED00895ECD380E091813A
:1000A000982752F0B7C1E9D3B9F380E8F8CFFBDF66
:1000B00001C0F3DFE2D3B1F7B5C1DCD35EC3DAD35D
:1000C000DAD1E0F30895D9D3805818F4D4D150F799
:1000D0009AC180516AF481953A96682F669519F015
:1000E00022926A95E9F7817019F08291807F80836E
:1000F00008953CD1032D1A010895BCD3BCD118F743
:10010000DCDFE1DFDACF32D1801B2F0108952ED161
:100110008D1901000895B8D37C91743E61F07C3153
:1001200051F0B7D140F0803031F0780B10F07531DC
:1001300010F4B9D1D7C2BED269C418D13D8B1B0708
:10014000040014D13D35038C22BD08038D051A0B24
:1001500025038C1A092403462AFC0DFBBADADC16A7
:10016000DB28BB17DB28BB17BA0FF2030D220802EE
:10017000020DDD08012A01000895020E0100089514
:10018000F5D00336053717010895F0D00B37032457
:10019000052C030D21083103811D0A060546292A75
:1001A0004505050346FD0DFCBBDBDD16DC16DC1644
:1001B000DC28BC17DC28BC17BB0FEE0508032A8B14
:1001C0001B0508012A010895028B0C07F400DDDFEE
:1001D0008D85813061F08EE040F080E106C08D8534
:1001E000813029F08FE008F081E160D08FD108954F
:1001F000BDD03A8B1A2A3E010895B8D0034628454F
:10020000173901000895020E070302102A0108950C
:10021000ADD00BF6030D2308ED032408022C0C03CC
:100220000D1EBD080127010028D370E87083B3D3E9
:100230009DD012801A8716050329052817BC46FB96
:10024000DC0DFADCDB16BCDA2828BA170FF5031B25
:100250001BDD08012A0108952801089587D00BF8B5
:100260000389220804021007F0038A2108040211FE
:1002700007E70388162DBC87161AFDDC0EFC0DBBA4
:10028000DBDD16DC28BC17BB0FF60512801B010056
:1002900097D38F93C6D08F91808338C167D0418820
:1002A0001601089563D0871642010895F1D2DF0147
:1002B0009AE0989FF001EC5EF54F85918D939A95A9
:1002C000E1F70895E5D2BAC0E3D2CEC0A006A206F7
:1002D000B406D206CA06DA06DE06E406F406FC0612
:1002E000040708070C07220412041601C402C802FE
:1002F00094096203800922090C058005EA05F605C8
:10030000A404A60430067600760076009A007600F3
:1003100076007600A600AE00B20068006E007200A3
:10032000BA00FE03BE00FA00F200C600000106019A
:10033000B400820654000E0142013A018001CE0150
:100340008A01F001FA01DE01D0014C065A061002C2
:100350005C029C02A40202066400AC02DE08620990
:10036000D008FF91EF91802F09C0E6D89F918F911F
:100370004F925F922C01440C551C48D3982F882330
:100380002AF49F71829586958370895BECECF2E08C
:10039000E80FF21DE80FF21D0590F491E02DF6959F
:1003A000E795892F0995E9CF8CEC8F8383E08887C7
:1003B00029862FD093D28EE18BD22A861FC79AE04E
:1003C0008C91708181937D939A95D1F715C098E0B7
:1003D0008D9181939A95E1F718973897089599E050
:1003E0008D9181939A95E1F71997399708959AE03D
:1003F0008D9181939A95E1F71A973A9708953DD296
:10040000E9F339D078F406D090E8908399E99183A4
:1004100008953ED28F938AE021928A95E9F78F91D1
:10042000ECCF36D290E822C034D040F3839580835D
:10043000843E20F320D010F401D09FC167D1EADFC1
:1004400094EE919399E086E0919399E98A95E1F78A
:10045000379708951ED090F28A9580838D3170F67B
:100460000AD010F401D089C151D19CE1D3DF90832F
:1004700091E091830895818180350FC08081813022
:1004800008958081843E09C08081803009F08D31DB
:10049000089580818D3128F0843E10F48894089569
:1004A000089408950ADEF0D10DD1DAD180819C91B3
:1004B000891708F484DF50819C919923E1F0591B3E
:1004C00039F05231C0F4CCD197D15A95E9F7C8D15F
:1004D0006FD120D108F49ECF81818A3020F08039FD
:1004E00010F48AD1A1DFAAD18081843E08F0A2CF86
:1004F0008D3108F4B5CF08953327B2D101D0B0D1F2
:10050000BADF482F08F439D134270895BDD1DAD0A5
:100510003A966DDF3A97A4D180818030E1F2992735
:100520006C916030C1F27727680F791F6F5772099D
:100530000AF3643E7205D8F66D31E0F26BDF60833A
:100540001A963A96D9DF3A9741E1172F3A9659D140
:100550003A97772321F0272F2BD12A95E9F7772790
:1005600050D14A9591F78181803019F459D1712F7A
:1005700071DF753008F002D133230AF4FED0A9CF21
:1005800083D1A0D03A9633DF3A976AD18C918030EC
:1005900009F450CF99276081603021F2772750E825
:1005A000650F721D681B790B0AF45ACF643E720501
:1005B00080F76D31D0F32EDF608374969DDF43E1C9
:1005C0002FEF239507D17723E1F3F2D07497722FA1
:1005D00027D1172F749623D14A9591F77497712FCD
:1005E00010D1172F77270DD1BECFC0DE0404172DF1
:1005F000161A01000895BADE0404172F161A010016
:1006000008953BD1A1F037DF10F4B7D07FD061D08F
:1006100034D18058859580588083A8DE05120A065B
:100620000404171B12021706290AF4020201089596
:100630009DDE0A0502020D0710050A0A02240903BD
:100640000E07061007034116420108958FDE0404C9
:100650003716060536160100089588DE050A0B02D6
:10066000032B8B163E052C0507140504044605468E
:100670001B45060504173C052009038C3E1B0100A1
:100680000895CFDE2AD09CD1803049F0863408F01E
:1006900086E48F9380D13ADF8F918A95D1F70895C0
:1006A0000895FF91EF91F2015F904F903196F6958A
:1006B000E7950994DFD08F9383E0E23CF8078F91B0
:1006C00009F4C1CAEF83F8870895E2D0DF01549797
:1006D0008ECEDED0DF011A978ACED6D070CED4D09F
:1006E0001A976DCE93D190E088230AF49FEF480EBD
:1006F000591E0895C2D0E6DFA9F788C1BED0E2DF57
:1007000089F384C1BAD0F8CFB8D0FACFF298F49A6E
:1007100008940895319699E077278191782B9A95DE
:10072000E1F73A97713008955F70750F982F8F70C9
:10073000907F870F77278A3010F08A5071E0892BDD
:1007400008955F70750F982F8F70907F871B70E0F2
:1007500012F4865F71E0892B0895319669E08081FB
:10076000982F8F70907F79E0781B80E9891B872B09
:1007700081936A95A1F73A970895EFDF71E03A9671
:1007800069E08291D3DF8295D1DF829580836A957B
:10079000C1F73197089571E03A9669E08291D3DF0D
:1007A0008295C4DF829580836A95C1F73197089559
:1007B00077273A961A9669E082915E91B5DF829525
:1007C0005C915295B1DF829580836A95A9F7319744
:1007D0001197089577273A961A9669E082915E916B
:1007E000B0DF82955C915295ACDF829580836A95EB
:1007F000A9F73197119708957181703570E008F06D
:1008000079E0319669E08081082E807F872B829580
:100810008193702D7F706A95B1F73A970895772785
:100820003A9669E082918295082E807F872B80839B
:10083000702D7F706A95B1F7319708956BDF70F076
:100840001ADE18F49ADF01D098CF80818D31A8F399
:100850008181803091F7E3DFFDDDF7CF20820895BD
:10086000EA27AE27EA27FB27BF27FB270895EF815A
:10087000F8850895FCDF3A970895FCDF8081803089
:100880000895F5DF74970895F5DFDF011A9708954D
:10089000EEDF3A9617DF3A978F9384E0E236F80757
:1008A0008F91A8F3D0C9E8E0E89FF001EC56FE4F25
:1008B0000895E9E0E89FF001E85DFE4F0895EAE061
:1008C000E89FF001E453FC4F089587E001C08FE1F9
:1008D00006D0F0CE27D0EECE87E001C08FE18E317A
:1008E00040F48A31F8F08B50EADFDF01C3DFB8DF74
:1008F0007ECD8451DEDFDF01BDDF5185B1DF6FDDED
:10090000503570F0C6DD60F0399668E071E039DF8F
:1009100081818A3028F0803918F46EDF85DD5187B7
:10092000089580E58A3030F38A50BDDFDF01A2DF11
:100930005085418595DF4BDD503578F0AADD68F0B4
:10094000389667E071E01DDF81818A3030F08039B0
:1009500020F452DF69DD50874187089587E001C0A8
:100960008FE18E3138F48A3160F08B50A8DFDF01DF
:100970008FDF3DCD84519DDFDF018ADF21862FCDC2
:1009800080E58A30C0F38A508EDFDF0181DF218667
:1009900020861DCD3BD0882309F43BCD42DD8A3033
:1009A00010F48183089591E890838ED99295792FE0
:1009B00092838A30B0F392E8908386D9972BF6CF52
:1009C0007EDB5BDF7FDE7727803810F4872F08958A
:1009D00071818138D8F39AE0979F7281707F729508
:1009E000700D823898F3833840F4979F72817F703E
:1009F000070E121C702D112049F38FEF0895E42586
:100A00004E26E425F5255F26F5250895F8DF859126
:100A1000F6DF08957F0500000000000000007F075A
:100A200050000000000000008201000000000000F3
:100A300000007E0100000000000000007C010000BA
:100A40000000000000007F06931471805599453125
:100A50008001442695040888963480023025850953
:100A6000299404577F0434294481903251838202AF
:100A70003025850929940457829771938715277922
:100A80003165800157079632679489668003141593
:100A900092653589793280062831853071795865BB
:100AA000810572957795130823217E0174532925BA
:100AB00019943296810636619772367581347E01BB
:100AC000570796326794896685021401300000004A
:100AD000000086025310110000000000890429491B
:100AE000672960000000FF93EF93BF93AF939F933C
:100AF0008F937F936F935F934F933DD644D5BADE28
:100B0000A7E1B1E08181803580E210F036DE8DE230
:100B10008D938081882309F080583ED639F48B303C
:100B20002CF49C85993099F48D3F8CF49BE28823BA
:100B300012F49DE281959CA3843610F083E600D6E2
:100B4000C3D8805D8DA3905D9EA3FDD5882760E00E
:100B5000582F539532F4652F619555276A3008F068
:100B60006AE04BE0451B461B552309F44A958C85EA
:100B7000893041F0460F481708F0482F461B12F401
:100B8000640F4427752F740F78DED9F00ED6C9F4A0
:100B900080818F9380E880837F9380E087DB6ADEAB
:100BA0007F917195705870837EDC64DE7F918081C7
:100BB0008058780F70838F898D3209F4DEDDC0D5BF
:100BC0009DCFB8D5552321F480E38D938EE28D938C
:100BD000662321F080E38D936A95E9F77723B9F0D6
:100BE000319681918F70805D8D935A9511F48EE2CC
:100BF0008D937A9561F08191982F92959F70905D79
:100C00009D935A9511F49EE29D937A9559F78C85A0
:100C1000893039F48E91803319F480E28C93FACFC5
:100C200011968A2F87518B879DE0981B51F0E4E243
:100C3000F1E09E9192938A95E1F780E28293E73109
:100C4000E9F738DD4F915F916F917F918F919F917F
:100C5000AF91BF91EF91FF9108954F935F936F9381
:100C60007F938F939F93AF93BF93EF93FF9310DE88
:100C7000D1DB9B85A4E2B1E0A91BB2094D915EE7EF
:100C800061E053956A95560F9A9521F18D918033C5
:100C9000D1F38E32B1F31197319663958D918E32E7
:100CA00021F46A959A95B1F08D9180537081707F8F
:100CB000872B8193560F9A9569F08D918E3221F48E
:100CC0006A959A9539F08D91805382958083560F5D
:100CD0009A9521F7CFDD6CD5A1F09DA190538AE0C4
:100CE000989F8EA18053800D9CA19D3209F481951F
:100CF000580F543E10F0A2DB53EE5D3110F4B4DB1C
:100D00005DE108DD08F4552750834D3209F435DDE7
:100D1000FF91EF91BF91AF919F918F917F916F91D3
:100D20005F914F910895B2BDA1BDF89A80B5089525
:100D3000FADF891739F0B2BDA1BD90BDFA9AF99AD0
:100D4000F999FECF089530DBF4980CD549D49CC3B3
:100D50000CDB34FF010098C308DBDF13FF0194C3F1
:100D600003E3FACF089555DBB0CD53DB80E08F93DA
:100D7000D9DD8F9183958035D1F79CCCF6DADFC72A
:100D8000FFE7010081C3F299898BF299089544C865
:100D90000FE301C000E4D0D3E9DAC7DF13FFE701B6
:100DA00073C389E001C088E0ECDD0ADE803508F01D
:100DB0004AC70895F6DF03C0F6DF01C0865F8F9350
:100DC00012D4CEDD8F9186CDECDF03C0ECDF01C005
:100DD000865FD7DD08D47BDD57C3E5DF8F93D1DD98
:100DE00002D4BEDD60DB8F9175CDDDDF8F93C9DD71
:100DF000FAD3B6DD57DB8F916DCDD5DF8F93C1DD93
:100E000036D98F9167CDCFDF8F93BBDD32D98F91EC
:100E100061CDC9DF03C0C5DF01C0865F8F93B1DD3F
:100E2000E2D39EDD8F9156DD52DD2EC3BCDF8F9362
:100E3000A8DDD9D395DD6ADB8F914CCDB4DF8F93DC
:100E4000A0DDD1D38DDD9CDB8F9144CD80E08D87FB
:100E5000A0C2FBD570F4982FF8D558F47AE0979F8C
:100E6000800D823330F40A881B88080E121C0E860F
:100E70001F860AC3782F8989F299CED7872FFAD790
:100E8000AE87BF8701C3F29B0895F298FDD29ED82A
:100E9000F29A53C37F9369DADFC71A01EEDC12DCE2
:100EA0007F91089571E001C070E0F4DF19F07723BD
:100EB00019F4D5C77723E9F7089571E001C070E010
:100EC000E9DF81818078F2CF81E0C1CF8E898823EC
:100ED00011F4F298D9C28A958E8B8F93E9EAF4E0E7
:100EE000E80FF21D808198D78F91E9E9F4E0880F2F
:100EF000E80FF21D0190F0810E86FF870895782F8C
:100F00008F858F938E858F9388898F93898984D7D6
:100F1000872FB0D7F29B2E8A8E898830C8F48395AC
:100F2000F2998E8BE8EAF4E0E80FF21D9F9190832E
:100F3000880FE7E9F4E0E80FF21D9F9191939F91EC
:100F40009083AE87BF87F2990895F29AF6D239C896
:100F50007AC60BDAC1DF1AE1C2DF461AE2C029E025
:100F6000C3C71AE3C4C7461AE4C5C7C5161AE5C005
:100F7000FFC729E7010088C2F8D9C1DF1BE1C2DF42
:100F8000461BE2C028E0C3C71BE3C4C7461BE4C539
:100F9000C7DF161BE5C0FFC728E7010075C2E5D90A
:100FA000C1070400E2D9C3C017FF01006DC2DDD93B
:100FB000C2C017C10706D9D9C4C017C3C017461A83
:100FC000FF0162C282E043CF888926D75DC2CDD9B6
:100FD000123CDF032DBF1A0416032D038316DF1BFB
:100FE000FF1A168416DF1BFF01004EC2BED9122461
:100FF000123CDF032DBF1A821605042D030617DFEE
:101000001BFF1A0517DF1BFF01003EC2AED98CFF84
:1010100001003AC2F2995DCFF29A8FD2D2C701DABB
:1010200001C0F7D9A3D9C003320A0D020320080575
:101030002903250703280326050609013205E001D7
:10104000BFDC882309F408950AC7B617D816460DE1
:10105000BE17660D7C0DCE17D217D617EC0F900D6C
:10106000DA17E217C617E612860E0C104C16141289
:101070001C12D812F217EA178C122210B80DCC0DE0
:10108000DA0D4C0E8212A80EFA0D120E2C0EC80E9E
:10109000C80F3612BE0E500DC40F14108A16AE16AD
:1010A0003413600D780F9E0FAE0FBA17C2176A0D7A
:1010B000CE0F940DDE17E617CA17E2126616F61762
:1010C000EE171E10B40DC80DEA0DA40E060E160E76
:1010D0003C0EBA0E520FA40FB60FCC0EA616D012AD
:1010E000640D0816BE0DD20DDC0D1C0E2E0EFC0D6F
:1010F000BC0DD00DEC0D1A0E3E0E080E640D740ED4
:10110000FE0E9E16860D982F843B68F0845BEAE401
:10111000F0E1880FE80FF21D8591F491E82FF69524
:10112000E795892F0994D0D5E2EEF0E1F2CF853131
:1011300009F4B8C68F3109F4BDC6893209F4D3C6A3
:10114000853209F4C3C68F3209F4D8C6853A11F442
:10115000F79A9AC18B3911F4F79896C18D3809F432
:1011600078CE8A3009F4E8C6843659F46ED448F44F
:1011700097E0899F96E49019AFEFB1E0D9DDCCD428
:1011800083C108958985EAE8F4E0E80FF21D8081C3
:1011900008952AD2E5DBF6DF8F7121F08A878EE190
:1011A0009EDBF0DF8770813011F47DD91CC0823066
:1011B00011F478D918C0833011F4A8D914C0843040
:1011C00011F4DED910C0853011F40FDA0CC086306E
:1011D00019F4B3D12DDA07C0873021F4AED144D74A
:1011E00027DA01C067DA7ADBF19ACCDF8076808378
:1011F0004BC18985873048F483958987B1DBC2DF8D
:10120000208208958985882309F41DC553DA8A95BB
:1012100089870895E9D1F198ECDFBBC0E5D1B9DF4A
:10122000B1DF8F938985882309F0ECDF8F91807679
:101230008030A9F7AEC0D8D1F19B1EC0A3DF887162
:10124000883141F4A6DF9EDF8076803411F0803251
:1012500009F4D8DF97DF8871803131F49ADF92DFAB
:101260008076803209F4CEDF8DDF8871883009F412
:1012700090DF20DA75DBF19885DF807689608083E6
:1012800088C0D9DF80768A60808383C0ADD1F19B2E
:101290001AC078DF8871883131F47BDF73DF8076A4
:1012A000803409F4AFDF6EDF8871803109F471DFBB
:1012B00069DF8871883021F49CDF64DF80E28083FD
:1012C000F9D94EDBF1985EDF80768361808361C05F
:1012D000DDDF8076856103C0D9DF8076846180831D
:1012E00058C071E001C070E07F937ED1F19B18C0BF
:1012F00049DF8871883109F44CDF44DF887180311F
:1013000021F477DF3FDF80E480833CDF8871883021
:1013100021F46FDF37DF80E28083CCD921DBF198C5
:1013200031DF80767F9177237EE109F07FE1872BA3
:1013300080832FC059D18985882319F423DF8770D2
:1013400029F06CDF89858823E1F768CF8A858823B7
:1013500041F0B0D905DB8EE104DB14DF8A858083A0
:1013600021CF0895446567005261640047726400AC
:101370004669780045450000326E6400494E5600CB
:1013800020202020000050676D00202B2D2A3A2FAE
:101390005E56F2990895F3990895F79908958F93F9
:1013A000EF93FF93E8D38D85E4E6F3E1813028F0F5
:1013B000E8E6F3E111F0ECE6F3E1E4D38C85893063
:1013C00021F4E0E8F3E1DED306C0E0E7F3E1DAD3AD
:1013D0008C85805D96D3E2E8F3E1DED111F0E4E79D
:1013E000F3E1D0D3E1E8F3E1D4D111F0E8E7F3E1A0
:1013F000C9D3E1E8F3E1C5D111F0ECE7F3E1C2D3E1
:10140000C1DE8770EAE8F3E1E80FF21D84918032D3
:1014100021F4E985EE2309F088E273D3FF91EF917F
:101420008F9108958F939F934FD4805D6AD3892FB6
:10143000805D67D39F918F91089590D3E6E8F3E1A3
:10144000A1D38889805D5DD3A6D3A5D3AE85BF85A2
:101450008A2FEA898E1BE6DF8AE353D39CD3F8D424
:1014600090F010D3E0E28A3510F08A55EDE28F93C8
:101470008E2F47D38F91D6DF8ED380E29F3F11F01E
:10148000892F805D3ED391C384DF33D0F39B0895D1
:101490008F939F93AF93BF93EF93FF936CD385E0AC
:1014A00080D3AE85BF85D4D4D0F0ECD28A3540F05D
:1014B0008A558F93ECE7F3E165D36DD38F9105C027
:1014C0008F93E0E8F3E15ED38F919F9397D45AD343
:1014D0009F919F3F21F05FD3892F805D12D365D309
:1014E00080E4ABDFFF91EF91BF91AF919F918F911E
:1014F0000895F2990895F39908958F939F93AF9368
:10150000BF93EF93FF93F09902C02ADAECDAF79BCE
:1015100008C031D3ECE8F1E098E0819151D39A957D
:10152000E1F726D3E7E1F1E032D3FF91EF91BF91EC
:10153000AF919F918F91089556D08F931CD335D33F
:1015400017D383E4DED231D38F910895F299F5CF8A
:10155000F399089522DF9A819F77903408F0C9CFDC
:1015600007D385E4CED221C3F59B02C0F69BE5DF0D
:10157000F59AF69BF598F69B0895F79902C080E0DE
:101580005CDFBBDF22C5F1D0F3D0F8D082E08B87DF
:10159000A7E1B1E080E28D93A732E9F72C9280E3D6
:1015A0008BA308958B858D3010F008940895839552
:1015B0008B87E7E1F1E09CE0818181939A95E1F7E7
:1015C0007083889408958B858A958B87E3E2F1E098
:1015D0009CE0829181839A95E1F780E2808308956F
:1015E000F09AD1DF51CFF19AF09B0895F098F19ADB
:1015F00034DB6DD949CFF7DFF29B9FCF0895B0D987
:1016000072DAF09A2ADB63C9782F705D7F93F09BC2
:10161000E7DF7F91C7D059F0CBD029F494D080E296
:101620008CA380E38EA38EA18DA37EA32DCF8B856B
:10163000823021F48BA1803309F4C5DF8B858C3097
:1016400019F4ADD009F40895ADDF1ECFF09BD7DFBC
:10165000AFD031F478D08BE28CA380E38DA38EA33E
:101660006CD065D011CF7ED0F19AF09901D00CCF1B
:101670007FD08DA1803341F48EA1803329F480E2A4
:101680008CA38DA38EA37AD00895F09BA9DF70D090
:1016900086D021F47EE286DF08F04CD0F5CE8F9321
:1016A000A2DF8F9102C09FDF89E08C87EDCEF09999
:1016B00002C00AE251CBE4E2F1E09BE273D021F4F4
:1016C0008B85E81BF20990E280818D3209F09DE262
:1016D0009083DACEF498D8CEF499FCCFF09B19C061
:1016E00061D059F09DA18EA170E37DA39EA390339C
:1016F00019F4803309F4BCDFC7CE8B85823019F42E
:1017000080E38BA3C1CE8BA18E3209F42ED05BDF98
:10171000BBCEF19AB9CE9F9391E08F938881892BAC
:1017200088838F919F9108959F9392E0F6CF9F9326
:1017300094E0F3CF9F9398E0F0CF9F9390E1EDCFAB
:101740009F9390E4EACF9F9390E8E7CF9F939EEF1B
:101750008F938881892388838F919F9108959F9388
:101760009DEFF6CF9F939BEFF3CF9F9397EFF0CF33
:101770009F939FEEEDCF9F939FEBEACF9F939FE7C1
:10178000E7CF9F9391E08F93888189238F919F91D9
:1017900008959F9392E0F7CF9F9394E0F4CF9F93A7
:1017A00098E0F1CF9F9390E1EECF9F9390E4EBCF41
:1017B0009F9390E8E8CF01E4CFCA02E4CDCA03E4E6
:1017C000CBCA04E4C9CA08E3C7CA0CE3C5CA06E425
:1017D000C3CA05E4C1CA07E2BFCA06E3BDCA09E33A
:1017E000BBCA07E3B9CA0BE3B7CA0CE2B5CA0BE23E
:1017F000B3CA0DE2B1CA0EE2AFCA827273746263F9
:1018000064525354000102030405060708090B0B38
:101810000BB4B5B60B0BB7B8C10BB9BABBBCBDBEE8
:10182000BFC0C40B0A141EC2C30B2832CA0BC5C6E4
:10183000C7C8FF0BA0C9D08C0B0B0BCBCCCDCECF28
:10184000D6960B0B0BD1D2D3D4D5DBD70B0B0BD841
:10185000D93CAADAE3DC0BDDDEDF82E0E1E2000165
:1018600002030405060708090B0B0BE4B5B60B0BC6
:10187000E5E6EB0BB9BABBBCE7E8E9EAC40B4650B6
:101880005AECC30B646EEF0BEDC6C7FEFF0BFDEE0B
:10189000D00B0B0B0BCBF0F1F2F3D6FC0B0B0B0BBD
:1018A000F4F5F6F7DBD70B0B0B0BF878AADAFBDCB9
:1018B0000BDDDEDF82E0F9FA7FD38FE04F9B8F5F95
:1018C000359B8F5E189B8F5D349B8F5C199B8F5B64
:1018D000329B8F5A1B9B8F59309B8F588F3039F01A
:1018E000EE2321F4E82FEF2B8F7009F0EFEFF39543
:1018F00008958F938FB78F93EF93FF93E091020139
:10190000E395E0930201EE27F1E0559AD5DF559873
:10191000229AD2DF2298259ACFDF2598399ACCDFF8
:1019200039983B9AC9DF3B98F698EE2389F0EF3F50
:1019300079F0E13509F4F69AF0910301FE1711F000
:10194000E0930501E093030188E0809304010AC05D
:10195000809104018A9532F08093040119F48FEF8D
:1019600080930301FF91EF918F918FBF8F91189515
:10197000209280008BE08093810082E08093890038
:1019800080E78093880020928500209284008091D7
:101990006F00826080936F008FEF8D838B838E83C7
:1019A000089520926F002092800020928100089577
:1019B000F0DE59F0D4DEEDDC8F938F708B5F8A30D0
:1019C00009F488279F91907F892B08959F93EF9327
:1019D000FF939FEF8E819E83891769F5F8948D811F
:1019E0009D837894891739F1823131F4CADE11F47C
:1019F00092DE09C0ABDE07C0813139F4CADE11F4D2
:101A000093DE01C0ACDEC5DCE4CFD2DFEAEFF7E164
:101A1000E43029F095918917D9F78E2F8B5F982F95
:101A20008F7092959F70EAE09E9F800DAADE19F05C
:101A30008DDEAFDC865A8F3FFF91EF919F91089525
:101A40008E830895C3DFF1F308958FE087D08FE38D
:101A500058D0F8DF19DD8A300895B8DF89F0E82F13
:101A6000FF27EC5FF74E94919B3051F09A3028F0AD
:101A7000943B18F4EADF88F7980F892F889408952B
:101A800008940895EF93FF939FEF8A3030F0843BE2
:101A900020F41AD1EAE0E89F802DE4E0F8E1059017
:101AA000081621F0E83BD9F78EE202C08E2F855050
:101AB000FF91EF910895F29B089588DFE9F3813556
:101AC00029F0982F83DF19F0813511F402CA892F8C
:101AD000B7CF5B985A985998589880FD5B9A81FDCA
:101AE0005A9A82FD599A83FD589A5C9A5CD25C9806
:101AF0005AC22E988295EDDF8295EBDF5DC22E9A59
:101B0000F9CF8F93FCDF8981839589838F91089525
:101B100083E0DFDF8AE05BC292E494BD92E095BD92
:101B2000AFEFB1E000D98F3F09F483E287BD5C9845
:101B30004DD22E98EDDFECDFEBDF82E0EADF88E2CA
:101B4000D8DF88E0D6DF81E006D086E0D2DF8CE007
:101B5000D0DF298282E0CDDF85E039C28F939F9369
:101B6000982F9F7399838068C4DF9F918F91089508
:101B70008F9380EC02C08F9380E82982BADF8F9127
:101B80000895BFDF85918823E1F70895BADF819139
:101B90008823E1F708958F9380E2B3DF8F91089552
:101BA000FADF99819817E0F308958F939F9380E16E
:101BB000F8DF9F918F9108958F93892F01D08F9196
:101BC000829501D082958F938F708A3008F0895F5B
:101BD000805D97DF8F910895CEDFE6E4F0E0D2DFFD
:101BE000E4DFF1D1D6CB8BE985B980E484B9E7D1C4
:101BF00080EC84B985E388B927B880E88BB98FE594
:101C00008AB9089586E44FD6A7EFB1E078E08BD883
:101C1000819311967A95D9F786E445D681818031F2
:101C200008F0F8D3A3D3149316921B94181502014D
:101C300086E439D6A7EFB1E078E0919179D8119692
:101C40007A95D9F70895F894AFD343D98FEF94E0FC
:101C50009EBF8DBFF49A20C02224C0E0D1E02FBEE9
:101C6000E0E0F1E095E02192E030F907E1F78FEF55
:101C700094E09EBF8DBFB7DF80E891E08093610064
:101C800090936100A3D148DF73DE89E08C875BD835
:101C9000A3DF8827C1D0B6DF78943EDFF5DBF29B67
:101CA00006C062DCDCD018F02EDA05DFF8CFD5DE16
:101CB00030F0F39902C027DA03C032D101C037DA1D
:101CC000F49BEDCF43DCEBCF9DEC989F982F8AE0FF
:101CD000082E812D869586958695809D901908956C
:101CE0003000310032003300340035003600370058
:101CF000380039004F46460000494E56006C6E7859
:101D000000434500434C520000006C6F6700432EB7
:101D1000740074616E0000783C2D3E7400785E3271
:101D200000567800312F7800442E4D5300502D3E40
:101D3000520073696E00636F730070690000535442
:101D40004F0052434C0053554D00795E780050616E
:101D5000757365000045786300507264007C787C80
:101D60000000454500280029003A004E6F70000031
:101D700046697800496E74004465670047544F0017
:101D8000000000780044737A0053544F2A005243F5
:101D90004C2A0053554D2A005261640053425200B0
:101DA0000000002D00783D7400496E632A004578DC
:101DB000632A005072642A004772616400525354CF
:101DC000000000002B00783E3D7400496E63005017
:101DD000676D0052616E640056617200522F5300AD
:101DE000002E002B2F2D003D004C626C007821004E
:101DF00053746174004D65616E000000EAEFFDE10F
:101E00008A3548F4E0EEFCE1882329F09591992386
:101E1000E9F78A95D9F70895888B898B92E3899F92
:101E20000A8A1B8A0E861F869A95090E121C0C8A36
:101E30001D8A0895AE85BF858F938A89A8178B89DF
:101E4000B80720F08C898A178D898B078F910895A8
:101E50008827F2DF18F067D7119688940895AF931A
:101E6000BF93E8DFF5DFAE87BF8708F4F298BF9134
:101E7000AF9108958F939F93982F9E57AA89BB89FE
:101E8000E7DF08F4E0CE8917D9F79F918F91089585
:101E9000F39B0895CFDFE8F3982F4AD71196AE87CA
:101EA000BF87F2CAF2990895F39902C0F39A01C06C
:101EB000F398EACAF2990895D2DF38F0F39905C091
:101EC0008F93AAD88F911FD904D8DECAF2990895AA
:101ED000F39B0895AFDFE8F39FEF2AD7982F119671
:101EE000ABDFD8F7D1CAF2990895F39B0895A2DF2A
:101EF0001197A2DFD8F3AE87BF87C6CAF2990895BB
:101F0000F39B089597DFE8F3FD01AC89BD899FEF4E
:101F10000FD7982FAE17BF0711F01197F9CFB4CA9A
:101F2000B7DFB2CA8F9380E080935300809368003C
:101F300080936D008F911895F398F299CAD78B8191
:101F40008F3FE9F72EDD24BC25BC84E08093680038
:101F500080E880936D0025B824B828B888E087B958
:101F600080E88BB92AB881E08093530085E08093A4
:101F7000530078948895F89420925300209268003A
:101F800020926D008FEF94E09EBF8DBF2CDE1ED09F
:101F9000C3DDEEDC789478DA14D08B818F3FE9F7DB
:101FA0008E838D8379CE8F9385E000C000C000C002
:101FB0008A95E9F78F9108958F938DE4F7CF8AE0A2
:101FC00006C084E604C002D001D000D08AEF8F930F
:101FD0009F939AE0F1DF9A95E9F78A95D1F79F915F
:081FE0008F910895F894FFCFE2
:00000001FF
